:020000006C2D65
:0E000600213083120313FD00FD0B07280800B4
:100014000F3083120313FC004730FD00FD0B102842
:0A002400FC0B10280000000008008B
:06002E00000000000800C4
:1000340083160313AE1B21288312861323288312ED
:10004400861783162E1B2928831206132B28831246
:1000540006178316AE1A31288312861233288312A8
:10006400861683162E1A3928831206123B28831209
:10007400061668183F28061540280611861517200D
:1000840086118316AE194928831286134B288312CE
:10009400861783162E1951288312061353288312A8
:1000A40006178316AE185928831286125B2883120A
:1000B400861683162E18612883120612632883126B
:1000C400061668186728061568280611861517206D
:0E00D4008611681C6F280A207028032008007F
:1000E2007B15FB1F7B280130F300F201F101F001C7
:0800F200FA0DF20CFF300800CA
:0800FA00FA1FF21300300800A8
:0E010200F201F101F001F801F30100300800F4
:10011000FB14FB1F9228FF30F300F200F100F00007
:08012000FA0DF20CFF3008009B
:10012800A0017208031DA9287108F2007008F100E7
:10013800F001A0157208031DA9287108F200F10149
:10014800A011201672080319B7282008F302031D0E
:10015800031CBB280310F21BBF28F00DF10DF20D94
:10016800F30BAF28BB280130FC008120C2280230E5
:0E017800FC007120C2280430FC007D2008002D
:0E018600831203136A088A00690882000800C9
:06019400FB15FF3008001E
:10019A000E3083120313FD00FD0BD1280000080066
:1001AA0083120313F8010830FC00700DF80D74086F
:1001BA00F8020318E228F8070310F00DFC0BDA28FE
:0201CA0008002B
:1001CC0083120313FB017308031D770803193D29E0
:1001DC0072087606FA007708F3077E30031CFA28BB
:1001EC00F30203184029FD28F302031C432972086B
:1001FC00F8007108FC007008FD00F817F6170310E2
:10020C00F201F101F0011830A0007D1C17297408CF
:10021C00F00775080318750FF10776080318760FA9
:10022C00F207F20CF10CF00CF80CFC0CFD0C0310AA
:10023C00A00B0B29F21B2729F80DF00DF10DF20D77
:10024C00F3037B1B701C3929F81F3929F00A031999
:10025C00F10A0319F20A031D3929F20CF10CF00C06
:10026C00F30A03194029FA1FF21300304529013013
:10027C008120452902308820452904307120000056
:02028C00080068
:10028E00831603132C08F2007208F100F20A2D08EF
:10029E00F000AD0A700884000008F00071088400B8
:1002AE007008800071088400000803195F294B292B
:0602BE002C08F00008000E
:1002C40083120313681083162C08AE001A206814D6
:0202D400080020
:1002D60083120313FA017308031D7A147708031DAA
:1002E600FA147A080319B729033A031982297A18E6
:1002F6007F29F61FB529B329F21FB329B52972083C
:100306008039FA00F21376088039F6137A06031953
:1003160090297A080319B329B529770873020319B6
:100326009729031CAB29AF297608720203199E2967
:10033600031CAB29AF29750871020319A529031CF3
:10034600AB29AF29740870020319B7290318AF291E
:10035600FA080319B529B329FA080319B329B529E7
:10036600031408000310080003140315080008000E
:10037600CD29803083160313A000E029C030A000E9
:10038600E0299430A000E029D430A000E029803094
:10039600A000E029831603132008013A0319BC299B
:1003A6002008023A0319C1292008033A0319C4296F
:1003B6002008043A0319C729CA292103F000200896
:1003C600F0077008A0007008AE001A206810EF0150
:1003D6006F0883162207840000080319FC2983127C
:1003E6006F088316220784000008AC006221EF0A1A
:0803F600EB29831268140800D2
:1003FE0083160313AA01AB012008A6002108A7004B
:10040E002208A8002308A9002908FF3A031D192A6B
:10041E002808FF3A031D192A2708FF3A031D192A37
:10042E002608FF3A031D232A2408AC004F30AD00E6
:10043E0047210330F000062C01308312EF008316A3
:10044E00A81F362A80302806F0007008A8008312F4
:10045E00EF0A8316240884002D308000A40A003091
:10046E00F0002906031D452A70082806031D452A9B
:10047E0070082706031D452A2608003A031D4E2A3A
:10048E002408AC005330AD004721F001062C29089A
:10049E00FF3A031D5C2A2808003A031D5C2A270830
:1004AE00003A031D5C2A2608003A031D672A240819
:1004BE00AC004B30AD00472183126F08F000062CC4
:1004CE000030F4000030F5000030F6007F30F70009
:1004DE0083162608F0002708F1002808F2002908E4
:1004EE00F3006B21013003180030F000700803197F
:1004FE009D2A83162608F0002708F1002808F2002E
:10050E002908F3000030F4000030F5002030F6002A
:10051E008230F700E62070088316A6007108A70047
:10052E007208A8007308A900AB03672A831600306F
:10053E00F4000030F5002030F6008230F700260877
:10054E00F0002708F1002808F2002908F3006B21BB
:10055E000130031C0030F00070080319D32A8316F3
:10056E002608F0002708F1002808F2002908F300F9
:10057E00CD30F400CC30F5004C30F6007B30F70077
:10058E00E62070088316A6007108A7007208A8005E
:10059E007308A900AB0A9D2A8316FF302605F800C2
:1005AE00FF302705F9007F302805FA0000302905B5
:1005BE00FB007808F4007908F5007A08F6007B084D
:1005CE00F700F40DF50DF60DF70D7410003026053D
:1005DE00F00000302705F10000302805F200FF3052
:1005EE002905F3007008A6007108A7007208A8007C
:1005FE007308A90074082604F00075082704F1009A
:10060E0076082804F20077082904F3007008A60083
:10061E007108A7007208A8007308A9007F3029028C
:10062E00F0007008A5000130A9007008F40026083B
:10063E00F0002708F1002808F2002908F3007408DA
:10064E000319302BF00DF10DF20DF30D7010FF3E6E
:10065E00272B7008A6007108A7007208A80073085F
:10066E00A9002908303EF00024088400700880009C
:10067E00A40A80302B06F0008030013A7002031C71
:10068E00512B8030063AF00080302B067002031C8E
:10069E00512B582B240884002E308000A40A0130E0
:1006AE00AA000630A5002508003A0319B62BA901A9
:1006BE002608F0002708F1002808F2002908F300A8
:1006CE00F00DF10DF20DF30D7010F00DF10DF20DA8
:1006DE00F30D70102608F00727080318270FF107EF
:1006EE0028080318280FF20729080318290FF30703
:1006FE007008A6007108A7007208A8007308A90068
:10070E002608F0002708F1002808F2002908F30057
:10071E00F00DF10DF20DF30D70107008A6007108BA
:10072E00A7007208A8007308A9002908303EF0003F
:10073E002408840070088000A40A2A08003A031DC9
:10074E00B42BAB032B08003A031DB42B24088400F2
:10075E002E308000A40A0130AA00A5035A2BFF30C8
:10076E00240784000008303A031DBF2BA403B62BC8
:10077E00FF302407840000082E3A031DC72BA40364
:10078E002B08003A0319022C2408840065308000DF
:10079E00A40A80302B06F0008030003A7002031855
:1007AE00E02B240884002D308000A40A2B08003C86
:1007BE00AB002B08A5002B08093C0318F32B0A30BD
:1007CE00F4002508F000D5203030F00783162408F9
:1007DE00840070088000A40A0A30F4002508F00096
:1007EE00D5207808F0003030F007831624088400F6
:1007FE0070088000A40A240884008001F00108001B
:10080E00831203137408003A031D222C7508003A54
:10081E00031D222C7608003A031D222C7708003A7D
:10082E00031D222CFF30F000FF30F1007F30F2006C
:10083E00FF30F300BD2C8312031377080319B12C7C
:10084E0073080319B42C720876068039FA00F21771
:10085E00F617A0017208F8007108FC007008FD0080
:10086E007408FD027508031C750FFC027608031C44
:10087E00760FF802F801FC01FD01031C4D2C03104C
:10088E00F20CF10CF00CF80C0130A0007708F3021A
:10089E00031C572C7E302007F3070318B72C5C2C53
:1008AE007E302007F307031CBA2C1830FA07FD0D13
:1008BE00FC0DF80DF00DF10DF20DA00D7408F00207
:1008CE007508031C750FF1027608031C760FF202F1
:1008DE00760DA004201C752C7D14802C7408F00756
:1008EE0075080318750FF10776080318760AF207D4
:1008FE007D10FA031F307A05031D5E2C7B1B7D1CB9
:10090E00A72C0310F00DF10DF20DA00D7408F002DE
:10091E007508031C750FF1027608031C760FF202A0
:10092E00760D20040139FD070318FC0A0319F80A95
:10093E00031DA72CF80CFC0CFD0CF30A0319B72CA5
:10094E00FA1FF8137808F2007C08F1007D08F00019
:10095E000030BC2C0130CA20BC2C02308120BC2CB3
:0E096E0004308820BC2C0830712000000800E6
:10097C00831203137008F8007108F000F101F20102
:10098C00F301FB01FC019630F300FA01F01FD42CAB
:10099C00F809F009F80A0319F00AFA177008F100BF
:0C09AC007808F000F801F2019420080027
:1009B800FF3083120313E500FF30E600FF30E70045
:1009C800FF309F01C0309F0483161F179F178312A3
:0409D8001F140800E0
:1009DC00831603138611061106128612061386134C
:1009EC0083128611061186130613861206120A202C
:1009FC000A200A20861606168615172086110A204C
:100A0C008615172086110A208615172086110A20B4
:100A1C0006128615172086110A20861517208611B6
:100A2C00861286178615172086110A20861306163D
:100A3C0086151720861106128615172086110A2096
:100A4C0086151720861106168615172086110A2082
:100A5C000612861517208611861706178616061697
:0C0A6C008615172086110A206814080067
:100A7800831203139F01C0309F0483161F179F170B
:100A880083126F08F000F00D7010F00D7010F00D6B
:100A9800701070089F041F14CD201F151F1D562DA0
:100AA8000000522D1F101E08F100F00183161E08C9
:080AB800F0040030F104080015
:100AC000C3208A110A128000840AE90A0319EA0A7B
:080AD000F003031D602D080076
:100AD80030268316031386018701013085001F1510
:100AE800DC24EE2401308316AE001A200C30831665
:100AF800AE001A200230EF003C25BE240030F4007E
:100B08004030F5001C30F6008B30F700E62000304E
:100B1800F400C030F5007F30F6008830F700072475
:100B28000030F4000030F5002030F6008230F70085
:100B380007247008EB007108EC007208ED007308D8
:100B4800EE0070088316A0007108A1007208A200C8
:100B58007308A3005530A400FF2101308316031346
:100B6800A0000230A1002130A200BB210130831671
:100B7800A0000A30A1005530A200BB216B08F40088
:100B88006C08F5006D08F6006E08F7000030F000FC
:100B98000030F1005830F2008330F3006B2101304F
:100BA80003180030F00070080319E82D07108714A7
:100BB80007158711071602308316A0000230A1001E
:100BC8002830A200BB21F52D0710871007118715C3
:100BD800071202308316A0000230A1003A30A200AA
:060BE800BB217E2DF62D5D
:100C600021308400343083120313F000FC30E9009B
:080C70000530EA0060250800D0
:0E0BF800563461346C34753465343A3400344C
:100C060048346934673468342034543465346D3478
:100C160070346534723461347434753472346534C6
:040C26003A34003428
:100C2A0047346F346F3464342034543465346D344B
:100C3A0070346534723461347434753472346534A2
:020C4A00003474
:080C4C0049344E3446340034F3
:080C54004E3461344E340034CB
:040C5C0030340034FC
:02400E004A2F37
:00000001FF
